{
  "_format": "hh-sol-artifact-1",
  "contractName": "NFT",
  "sourceName": "contracts/NFT.sol",
  "abi": [
    {
      "inputs": [
        {
          "internalType": "address",
          "name": "marketplaceAddress",
          "type": "address"
        }
      ],
      "stateMutability": "nonpayable",
      "type": "constructor"
    },
    {
      "anonymous": false,
      "inputs": [
        {
          "indexed": true,
          "internalType": "address",
          "name": "owner",
          "type": "address"
        },
        {
          "indexed": true,
          "internalType": "address",
          "name": "approved",
          "type": "address"
        },
        {
          "indexed": true,
          "internalType": "uint256",
          "name": "tokenId",
          "type": "uint256"
        }
      ],
      "name": "Approval",
      "type": "event"
    },
    {
      "anonymous": false,
      "inputs": [
        {
          "indexed": true,
          "internalType": "address",
          "name": "owner",
          "type": "address"
        },
        {
          "indexed": true,
          "internalType": "address",
          "name": "operator",
          "type": "address"
        },
        {
          "indexed": false,
          "internalType": "bool",
          "name": "approved",
          "type": "bool"
        }
      ],
      "name": "ApprovalForAll",
      "type": "event"
    },
    {
      "anonymous": false,
      "inputs": [
        {
          "indexed": true,
          "internalType": "address",
          "name": "from",
          "type": "address"
        },
        {
          "indexed": true,
          "internalType": "address",
          "name": "to",
          "type": "address"
        },
        {
          "indexed": true,
          "internalType": "uint256",
          "name": "tokenId",
          "type": "uint256"
        }
      ],
      "name": "Transfer",
      "type": "event"
    },
    {
      "inputs": [
        {
          "internalType": "address",
          "name": "to",
          "type": "address"
        },
        {
          "internalType": "uint256",
          "name": "tokenId",
          "type": "uint256"
        }
      ],
      "name": "approve",
      "outputs": [],
      "stateMutability": "nonpayable",
      "type": "function"
    },
    {
      "inputs": [
        {
          "internalType": "address",
          "name": "owner",
          "type": "address"
        }
      ],
      "name": "balanceOf",
      "outputs": [
        {
          "internalType": "uint256",
          "name": "",
          "type": "uint256"
        }
      ],
      "stateMutability": "view",
      "type": "function"
    },
    {
      "inputs": [],
      "name": "fetchTokenIds",
      "outputs": [
        {
          "internalType": "uint256",
          "name": "",
          "type": "uint256"
        }
      ],
      "stateMutability": "view",
      "type": "function"
    },
    {
      "inputs": [
        {
          "internalType": "uint256",
          "name": "tokenId",
          "type": "uint256"
        }
      ],
      "name": "getApproved",
      "outputs": [
        {
          "internalType": "address",
          "name": "",
          "type": "address"
        }
      ],
      "stateMutability": "view",
      "type": "function"
    },
    {
      "inputs": [
        {
          "internalType": "address",
          "name": "owner",
          "type": "address"
        },
        {
          "internalType": "address",
          "name": "operator",
          "type": "address"
        }
      ],
      "name": "isApprovedForAll",
      "outputs": [
        {
          "internalType": "bool",
          "name": "",
          "type": "bool"
        }
      ],
      "stateMutability": "view",
      "type": "function"
    },
    {
      "inputs": [
        {
          "internalType": "string",
          "name": "tokenURI",
          "type": "string"
        }
      ],
      "name": "mintToken",
      "outputs": [
        {
          "internalType": "uint256",
          "name": "",
          "type": "uint256"
        }
      ],
      "stateMutability": "nonpayable",
      "type": "function"
    },
    {
      "inputs": [],
      "name": "name",
      "outputs": [
        {
          "internalType": "string",
          "name": "",
          "type": "string"
        }
      ],
      "stateMutability": "view",
      "type": "function"
    },
    {
      "inputs": [
        {
          "internalType": "uint256",
          "name": "tokenId",
          "type": "uint256"
        }
      ],
      "name": "ownerOf",
      "outputs": [
        {
          "internalType": "address",
          "name": "",
          "type": "address"
        }
      ],
      "stateMutability": "view",
      "type": "function"
    },
    {
      "inputs": [
        {
          "internalType": "address",
          "name": "from",
          "type": "address"
        },
        {
          "internalType": "address",
          "name": "to",
          "type": "address"
        },
        {
          "internalType": "uint256",
          "name": "tokenId",
          "type": "uint256"
        }
      ],
      "name": "safeTransferFrom",
      "outputs": [],
      "stateMutability": "nonpayable",
      "type": "function"
    },
    {
      "inputs": [
        {
          "internalType": "address",
          "name": "from",
          "type": "address"
        },
        {
          "internalType": "address",
          "name": "to",
          "type": "address"
        },
        {
          "internalType": "uint256",
          "name": "tokenId",
          "type": "uint256"
        },
        {
          "internalType": "bytes",
          "name": "_data",
          "type": "bytes"
        }
      ],
      "name": "safeTransferFrom",
      "outputs": [],
      "stateMutability": "nonpayable",
      "type": "function"
    },
    {
      "inputs": [
        {
          "internalType": "address",
          "name": "operator",
          "type": "address"
        },
        {
          "internalType": "bool",
          "name": "approved",
          "type": "bool"
        }
      ],
      "name": "setApprovalForAll",
      "outputs": [],
      "stateMutability": "nonpayable",
      "type": "function"
    },
    {
      "inputs": [
        {
          "internalType": "bytes4",
          "name": "interfaceId",
          "type": "bytes4"
        }
      ],
      "name": "supportsInterface",
      "outputs": [
        {
          "internalType": "bool",
          "name": "",
          "type": "bool"
        }
      ],
      "stateMutability": "view",
      "type": "function"
    },
    {
      "inputs": [],
      "name": "symbol",
      "outputs": [
        {
          "internalType": "string",
          "name": "",
          "type": "string"
        }
      ],
      "stateMutability": "view",
      "type": "function"
    },
    {
      "inputs": [
        {
          "internalType": "uint256",
          "name": "tokenId",
          "type": "uint256"
        }
      ],
      "name": "tokenURI",
      "outputs": [
        {
          "internalType": "string",
          "name": "",
          "type": "string"
        }
      ],
      "stateMutability": "view",
      "type": "function"
    },
    {
      "inputs": [
        {
          "internalType": "address",
          "name": "from",
          "type": "address"
        },
        {
          "internalType": "address",
          "name": "to",
          "type": "address"
        },
        {
          "internalType": "uint256",
          "name": "tokenId",
          "type": "uint256"
        }
      ],
      "name": "transferFrom",
      "outputs": [],
      "stateMutability": "nonpayable",
      "type": "function"
    }
  ],
  "bytecode": "0x60806040523480156200001157600080fd5b50604051620018f3380380620018f383398101604081905262000034916200016b565b604080518082018252600e81526d45746865724d656d6f7261626c6560901b60208083019182528351808501909452600384526245544d60e81b9084015281519192916200008591600091620000c5565b5080516200009b906001906020840190620000c5565b5050600880546001600160a01b0319166001600160a01b03939093169290921790915550620001d8565b828054620000d3906200019b565b90600052602060002090601f016020900481019282620000f7576000855562000142565b82601f106200011257805160ff191683800117855562000142565b8280016001018555821562000142579182015b828111156200014257825182559160200191906001019062000125565b506200015092915062000154565b5090565b5b8082111562000150576000815560010162000155565b6000602082840312156200017d578081fd5b81516001600160a01b038116811462000194578182fd5b9392505050565b600181811c90821680620001b057607f821691505b60208210811415620001d257634e487b7160e01b600052602260045260246000fd5b50919050565b61170b80620001e86000396000f3fe608060405234801561001057600080fd5b50600436106100f55760003560e01c80634943f0b711610097578063a22cb46511610066578063a22cb465146101f4578063b88d4fde14610207578063c87b56dd1461021a578063e985e9c51461022d57600080fd5b80634943f0b7146101be5780636352211e146101c657806370a08231146101d957806395d89b41146101ec57600080fd5b8063095ea7b3116100d3578063095ea7b31461016257806323b872dd1461017757806333eba49a1461018a57806342842e0e146101ab57600080fd5b806301ffc9a7146100fa57806306fdde0314610122578063081812fc14610137575b600080fd5b61010d6101083660046113bd565b610269565b60405190151581526020015b60405180910390f35b61012a6102bb565b60405161011991906114eb565b61014a61014536600461143b565b61034d565b6040516001600160a01b039091168152602001610119565b610175610170366004611394565b6103da565b005b6101756101853660046112a6565b6104f0565b61019d6101983660046113f5565b610521565b604051908152602001610119565b6101756101b93660046112a6565b610569565b61019d610584565b61014a6101d436600461143b565b610594565b61019d6101e736600461125a565b61060b565b61012a610692565b61017561020236600461135a565b6106a1565b6101756102153660046112e1565b6106b0565b61012a61022836600461143b565b6106e8565b61010d61023b366004611274565b6001600160a01b03918216600090815260056020908152604080832093909416825291909152205460ff1690565b60006001600160e01b031982166380ac58cd60e01b148061029a57506001600160e01b03198216635b5e139f60e01b145b806102b557506301ffc9a760e01b6001600160e01b03198316145b92915050565b6060600080546102ca90611610565b80601f01602080910402602001604051908101604052809291908181526020018280546102f690611610565b80156103435780601f1061031857610100808354040283529160200191610343565b820191906000526020600020905b81548152906001019060200180831161032657829003601f168201915b5050505050905090565b60006103588261085f565b6103be5760405162461bcd60e51b815260206004820152602c60248201527f4552433732313a20617070726f76656420717565727920666f72206e6f6e657860448201526b34b9ba32b73a103a37b5b2b760a11b60648201526084015b60405180910390fd5b506000908152600460205260409020546001600160a01b031690565b60006103e582610594565b9050806001600160a01b0316836001600160a01b031614156104535760405162461bcd60e51b815260206004820152602160248201527f4552433732313a20617070726f76616c20746f2063757272656e74206f776e656044820152603960f91b60648201526084016103b5565b336001600160a01b038216148061046f575061046f813361023b565b6104e15760405162461bcd60e51b815260206004820152603860248201527f4552433732313a20617070726f76652063616c6c6572206973206e6f74206f7760448201527f6e6572206e6f7220617070726f76656420666f7220616c6c000000000000000060648201526084016103b5565b6104eb838361087c565b505050565b6104fa33826108ea565b6105165760405162461bcd60e51b81526004016103b590611550565b6104eb8383836109d0565b6000610531600780546001019055565b600061053c60075490565b90506105483382610b70565b6105528184610ca3565b6008546102b5906001600160a01b031660016106a1565b6104eb838383604051806020016040528060008152506106b0565b600061058f60075490565b905090565b6000818152600260205260408120546001600160a01b0316806102b55760405162461bcd60e51b815260206004820152602960248201527f4552433732313a206f776e657220717565727920666f72206e6f6e657869737460448201526832b73a103a37b5b2b760b91b60648201526084016103b5565b60006001600160a01b0382166106765760405162461bcd60e51b815260206004820152602a60248201527f4552433732313a2062616c616e636520717565727920666f7220746865207a65604482015269726f206164647265737360b01b60648201526084016103b5565b506001600160a01b031660009081526003602052604090205490565b6060600180546102ca90611610565b6106ac338383610d2e565b5050565b6106ba33836108ea565b6106d65760405162461bcd60e51b81526004016103b590611550565b6106e284848484610dfd565b50505050565b60606106f38261085f565b6107595760405162461bcd60e51b815260206004820152603160248201527f45524337323155524953746f726167653a2055524920717565727920666f72206044820152703737b732bc34b9ba32b73a103a37b5b2b760791b60648201526084016103b5565b6000828152600660205260408120805461077290611610565b80601f016020809104026020016040519081016040528092919081815260200182805461079e90611610565b80156107eb5780601f106107c0576101008083540402835291602001916107eb565b820191906000526020600020905b8154815290600101906020018083116107ce57829003601f168201915b50505050509050600061080960408051602081019091526000815290565b905080516000141561081c575092915050565b81511561084e57808260405160200161083692919061147f565b60405160208183030381529060405292505050919050565b61085784610e30565b949350505050565b6000908152600260205260409020546001600160a01b0316151590565b600081815260046020526040902080546001600160a01b0319166001600160a01b03841690811790915581906108b182610594565b6001600160a01b03167f8c5be1e5ebec7d5bd14f71427d1e84f3dd0314c0f7b2291e5b200ac8c7c3b92560405160405180910390a45050565b60006108f58261085f565b6109565760405162461bcd60e51b815260206004820152602c60248201527f4552433732313a206f70657261746f7220717565727920666f72206e6f6e657860448201526b34b9ba32b73a103a37b5b2b760a11b60648201526084016103b5565b600061096183610594565b9050806001600160a01b0316846001600160a01b0316148061099c5750836001600160a01b03166109918461034d565b6001600160a01b0316145b8061085757506001600160a01b0380821660009081526005602090815260408083209388168352929052205460ff16610857565b826001600160a01b03166109e382610594565b6001600160a01b031614610a4b5760405162461bcd60e51b815260206004820152602960248201527f4552433732313a207472616e73666572206f6620746f6b656e2074686174206960448201526839903737ba1037bbb760b91b60648201526084016103b5565b6001600160a01b038216610aad5760405162461bcd60e51b8152602060048201526024808201527f4552433732313a207472616e7366657220746f20746865207a65726f206164646044820152637265737360e01b60648201526084016103b5565b610ab860008261087c565b6001600160a01b0383166000908152600360205260408120805460019290610ae19084906115cd565b90915550506001600160a01b0382166000908152600360205260408120805460019290610b0f9084906115a1565b909155505060008181526002602052604080822080546001600160a01b0319166001600160a01b0386811691821790925591518493918716917fddf252ad1be2c89b69c2b068fc378daa952ba7f163c4a11628f55a4df523b3ef91a4505050565b6001600160a01b038216610bc65760405162461bcd60e51b815260206004820181905260248201527f4552433732313a206d696e7420746f20746865207a65726f206164647265737360448201526064016103b5565b610bcf8161085f565b15610c1c5760405162461bcd60e51b815260206004820152601c60248201527f4552433732313a20746f6b656e20616c7265616479206d696e7465640000000060448201526064016103b5565b6001600160a01b0382166000908152600360205260408120805460019290610c459084906115a1565b909155505060008181526002602052604080822080546001600160a01b0319166001600160a01b03861690811790915590518392907fddf252ad1be2c89b69c2b068fc378daa952ba7f163c4a11628f55a4df523b3ef908290a45050565b610cac8261085f565b610d0f5760405162461bcd60e51b815260206004820152602e60248201527f45524337323155524953746f726167653a2055524920736574206f66206e6f6e60448201526d32bc34b9ba32b73a103a37b5b2b760911b60648201526084016103b5565b600082815260066020908152604090912082516104eb9284019061112f565b816001600160a01b0316836001600160a01b03161415610d905760405162461bcd60e51b815260206004820152601960248201527f4552433732313a20617070726f766520746f2063616c6c65720000000000000060448201526064016103b5565b6001600160a01b03838116600081815260056020908152604080832094871680845294825291829020805460ff191686151590811790915591519182527f17307eab39ab6107e8899845ad3d59bd9653f200f220920489ca2b5937696c31910160405180910390a3505050565b610e088484846109d0565b610e1484848484610f08565b6106e25760405162461bcd60e51b81526004016103b5906114fe565b6060610e3b8261085f565b610e9f5760405162461bcd60e51b815260206004820152602f60248201527f4552433732314d657461646174613a2055524920717565727920666f72206e6f60448201526e3732bc34b9ba32b73a103a37b5b2b760891b60648201526084016103b5565b6000610eb660408051602081019091526000815290565b90506000815111610ed65760405180602001604052806000815250610f01565b80610ee084611015565b604051602001610ef192919061147f565b6040516020818303038152906040525b9392505050565b60006001600160a01b0384163b1561100a57604051630a85bd0160e11b81526001600160a01b0385169063150b7a0290610f4c9033908990889088906004016114ae565b602060405180830381600087803b158015610f6657600080fd5b505af1925050508015610f96575060408051601f3d908101601f19168201909252610f93918101906113d9565b60015b610ff0573d808015610fc4576040519150601f19603f3d011682016040523d82523d6000602084013e610fc9565b606091505b508051610fe85760405162461bcd60e51b81526004016103b5906114fe565b805181602001fd5b6001600160e01b031916630a85bd0160e11b149050610857565b506001949350505050565b6060816110395750506040805180820190915260018152600360fc1b602082015290565b8160005b8115611063578061104d8161164b565b915061105c9050600a836115b9565b915061103d565b60008167ffffffffffffffff81111561108c57634e487b7160e01b600052604160045260246000fd5b6040519080825280601f01601f1916602001820160405280156110b6576020820181803683370190505b5090505b8415610857576110cb6001836115cd565b91506110d8600a86611666565b6110e39060306115a1565b60f81b81838151811061110657634e487b7160e01b600052603260045260246000fd5b60200101906001600160f81b031916908160001a905350611128600a866115b9565b94506110ba565b82805461113b90611610565b90600052602060002090601f01602090048101928261115d57600085556111a3565b82601f1061117657805160ff19168380011785556111a3565b828001600101855582156111a3579182015b828111156111a3578251825591602001919060010190611188565b506111af9291506111b3565b5090565b5b808211156111af57600081556001016111b4565b600067ffffffffffffffff808411156111e3576111e36116a6565b604051601f8501601f19908116603f0116810190828211818310171561120b5761120b6116a6565b8160405280935085815286868601111561122457600080fd5b858560208301376000602087830101525050509392505050565b80356001600160a01b038116811461125557600080fd5b919050565b60006020828403121561126b578081fd5b610f018261123e565b60008060408385031215611286578081fd5b61128f8361123e565b915061129d6020840161123e565b90509250929050565b6000806000606084860312156112ba578081fd5b6112c38461123e565b92506112d16020850161123e565b9150604084013590509250925092565b600080600080608085870312156112f6578081fd5b6112ff8561123e565b935061130d6020860161123e565b925060408501359150606085013567ffffffffffffffff81111561132f578182fd5b8501601f8101871361133f578182fd5b61134e878235602084016111c8565b91505092959194509250565b6000806040838503121561136c578182fd5b6113758361123e565b915060208301358015158114611389578182fd5b809150509250929050565b600080604083850312156113a6578182fd5b6113af8361123e565b946020939093013593505050565b6000602082840312156113ce578081fd5b8135610f01816116bc565b6000602082840312156113ea578081fd5b8151610f01816116bc565b600060208284031215611406578081fd5b813567ffffffffffffffff81111561141c578182fd5b8201601f8101841361142c578182fd5b610857848235602084016111c8565b60006020828403121561144c578081fd5b5035919050565b6000815180845261146b8160208601602086016115e4565b601f01601f19169290920160200192915050565b600083516114918184602088016115e4565b8351908301906114a58183602088016115e4565b01949350505050565b6001600160a01b03858116825284166020820152604081018390526080606082018190526000906114e190830184611453565b9695505050505050565b602081526000610f016020830184611453565b60208082526032908201527f4552433732313a207472616e7366657220746f206e6f6e20455243373231526560408201527131b2b4bb32b91034b6b83632b6b2b73a32b960711b606082015260800190565b60208082526031908201527f4552433732313a207472616e736665722063616c6c6572206973206e6f74206f6040820152701ddb995c881b9bdc88185c1c1c9bdd9959607a1b606082015260800190565b600082198211156115b4576115b461167a565b500190565b6000826115c8576115c8611690565b500490565b6000828210156115df576115df61167a565b500390565b60005b838110156115ff5781810151838201526020016115e7565b838111156106e25750506000910152565b600181811c9082168061162457607f821691505b6020821081141561164557634e487b7160e01b600052602260045260246000fd5b50919050565b600060001982141561165f5761165f61167a565b5060010190565b60008261167557611675611690565b500690565b634e487b7160e01b600052601160045260246000fd5b634e487b7160e01b600052601260045260246000fd5b634e487b7160e01b600052604160045260246000fd5b6001600160e01b0319811681146116d257600080fd5b5056fea2646970667358221220e7f8c2969abdda6809d145cbaf72edf5636c6b216ea5ad07f70e8abeabf0659264736f6c63430008040033",
  "linkReferences": {},
  "deployedLinkReferences": {}
}