{
  "_format": "hh-sol-artifact-1",
  "contractName": "EtherMemorable",
  "sourceName": "contracts/EtherMemorable.sol",
  "abi": [
    {
      "inputs": [],
      "stateMutability": "nonpayable",
      "type": "constructor"
    },
    {
      "anonymous": false,
      "inputs": [
        {
          "indexed": true,
          "internalType": "uint256",
          "name": "itemId",
          "type": "uint256"
        },
        {
          "indexed": true,
          "internalType": "address",
          "name": "nftContract",
          "type": "address"
        },
        {
          "indexed": true,
          "internalType": "uint256",
          "name": "tokenId",
          "type": "uint256"
        },
        {
          "indexed": false,
          "internalType": "address",
          "name": "seller",
          "type": "address"
        },
        {
          "indexed": false,
          "internalType": "address",
          "name": "owner",
          "type": "address"
        },
        {
          "indexed": false,
          "internalType": "uint256",
          "name": "price",
          "type": "uint256"
        },
        {
          "indexed": false,
          "internalType": "bool",
          "name": "sold",
          "type": "bool"
        }
      ],
      "name": "MarketTokenMinted",
      "type": "event"
    },
    {
      "inputs": [
        {
          "internalType": "address",
          "name": "nftContract",
          "type": "address"
        },
        {
          "internalType": "uint256",
          "name": "id",
          "type": "uint256"
        }
      ],
      "name": "OwnerTokenId",
      "outputs": [
        {
          "internalType": "address",
          "name": "",
          "type": "address"
        }
      ],
      "stateMutability": "view",
      "type": "function"
    },
    {
      "inputs": [
        {
          "internalType": "address",
          "name": "nftContract",
          "type": "address"
        },
        {
          "internalType": "address",
          "name": "to",
          "type": "address"
        },
        {
          "internalType": "uint256",
          "name": "itemNo",
          "type": "uint256"
        }
      ],
      "name": "TransferItem",
      "outputs": [],
      "stateMutability": "nonpayable",
      "type": "function"
    },
    {
      "inputs": [
        {
          "internalType": "address",
          "name": "nftContract",
          "type": "address"
        },
        {
          "internalType": "uint256",
          "name": "itemId",
          "type": "uint256"
        }
      ],
      "name": "createMarketSale",
      "outputs": [],
      "stateMutability": "payable",
      "type": "function"
    },
    {
      "inputs": [],
      "name": "fetchItemsCreated",
      "outputs": [
        {
          "components": [
            {
              "internalType": "uint256",
              "name": "itemId",
              "type": "uint256"
            },
            {
              "internalType": "address",
              "name": "nftContract",
              "type": "address"
            },
            {
              "internalType": "uint256",
              "name": "tokenId",
              "type": "uint256"
            },
            {
              "internalType": "address payable",
              "name": "seller",
              "type": "address"
            },
            {
              "internalType": "address payable",
              "name": "owner",
              "type": "address"
            },
            {
              "internalType": "uint256",
              "name": "price",
              "type": "uint256"
            },
            {
              "internalType": "bool",
              "name": "sold",
              "type": "bool"
            }
          ],
          "internalType": "struct EtherMemorable.MarketToken[]",
          "name": "",
          "type": "tuple[]"
        }
      ],
      "stateMutability": "view",
      "type": "function"
    },
    {
      "inputs": [],
      "name": "fetchMarketTokens",
      "outputs": [
        {
          "components": [
            {
              "internalType": "uint256",
              "name": "itemId",
              "type": "uint256"
            },
            {
              "internalType": "address",
              "name": "nftContract",
              "type": "address"
            },
            {
              "internalType": "uint256",
              "name": "tokenId",
              "type": "uint256"
            },
            {
              "internalType": "address payable",
              "name": "seller",
              "type": "address"
            },
            {
              "internalType": "address payable",
              "name": "owner",
              "type": "address"
            },
            {
              "internalType": "uint256",
              "name": "price",
              "type": "uint256"
            },
            {
              "internalType": "bool",
              "name": "sold",
              "type": "bool"
            }
          ],
          "internalType": "struct EtherMemorable.MarketToken[]",
          "name": "",
          "type": "tuple[]"
        }
      ],
      "stateMutability": "view",
      "type": "function"
    },
    {
      "inputs": [],
      "name": "fetchMyNFTs",
      "outputs": [
        {
          "components": [
            {
              "internalType": "uint256",
              "name": "itemId",
              "type": "uint256"
            },
            {
              "internalType": "address",
              "name": "nftContract",
              "type": "address"
            },
            {
              "internalType": "uint256",
              "name": "tokenId",
              "type": "uint256"
            },
            {
              "internalType": "address payable",
              "name": "seller",
              "type": "address"
            },
            {
              "internalType": "address payable",
              "name": "owner",
              "type": "address"
            },
            {
              "internalType": "uint256",
              "name": "price",
              "type": "uint256"
            },
            {
              "internalType": "bool",
              "name": "sold",
              "type": "bool"
            }
          ],
          "internalType": "struct EtherMemorable.MarketToken[]",
          "name": "",
          "type": "tuple[]"
        }
      ],
      "stateMutability": "view",
      "type": "function"
    },
    {
      "inputs": [],
      "name": "fetchTokenId",
      "outputs": [
        {
          "internalType": "uint256",
          "name": "",
          "type": "uint256"
        }
      ],
      "stateMutability": "view",
      "type": "function"
    },
    {
      "inputs": [],
      "name": "getListingPrice",
      "outputs": [
        {
          "internalType": "uint256",
          "name": "",
          "type": "uint256"
        }
      ],
      "stateMutability": "view",
      "type": "function"
    },
    {
      "inputs": [
        {
          "internalType": "address",
          "name": "nftContract",
          "type": "address"
        },
        {
          "internalType": "uint256",
          "name": "tokenId",
          "type": "uint256"
        },
        {
          "internalType": "uint256",
          "name": "price",
          "type": "uint256"
        }
      ],
      "name": "makeMarketItem",
      "outputs": [],
      "stateMutability": "payable",
      "type": "function"
    },
    {
      "inputs": [],
      "name": "massageSender",
      "outputs": [
        {
          "internalType": "address",
          "name": "",
          "type": "address"
        }
      ],
      "stateMutability": "view",
      "type": "function"
    }
  ],
  "bytecode": "0x6080604052669fdf42f6e4800060045534801561001b57600080fd5b506001600055600380546001600160a01b03191633179055611110806100426000396000f3fe6080604052600436106100915760003560e01c8063c569967c11610059578063c569967c1461012b578063c69bdf751461014b578063d229746914610160578063d9833a6b14610175578063f064c32e1461019557600080fd5b806312e85585146100965780631de7bdb7146100ba578063202e3740146100e15780637a060f5614610103578063c23b139e14610118575b600080fd5b3480156100a257600080fd5b506004545b6040519081526020015b60405180910390f35b3480156100c657600080fd5b50335b6040516001600160a01b0390911681526020016100b1565b3480156100ed57600080fd5b506100f66101aa565b6040516100b19190610f97565b610116610111366004610f63565b6103ab565b005b610116610126366004610f38565b61061f565b34801561013757600080fd5b506100c9610146366004610f38565b6107ff565b34801561015757600080fd5b506100f6610881565b34801561016c57600080fd5b506100a7610a20565b34801561018157600080fd5b50610116610190366004610ef8565b610a30565b3480156101a157600080fd5b506100f6610ca8565b606060006101b760015490565b905060008060005b8381101561021a5733600560006101d7846001611062565b81526020810191909152604001600020600401546001600160a01b0316141561020857610205600184611062565b92505b8061021281611091565b9150506101bf565b5060008267ffffffffffffffff81111561024457634e487b7160e01b600052604160045260246000fd5b60405190808252806020026020018201604052801561027d57816020015b61026a610ea0565b8152602001906001900390816102625790505b50905060005b848110156103a257336005600061029b846001611062565b81526020810191909152604001600020600401546001600160a01b031614156103905760006005816102ce846001611062565b81526020808201929092526040908101600090812054808252600580855291839020835160e0810185528154815260018201546001600160a01b0390811696820196909652600282015494810194909452600381015485166060850152600481015490941660808401529083015460a0830152600683015460ff16151560c0830152855190935085908790811061037557634e487b7160e01b600052603260045260246000fd5b602090810291909101015261038b600186611062565b945050505b8061039a81611091565b915050610283565b50949350505050565b600260005414156103d75760405162461bcd60e51b81526004016103ce9061102b565b60405180910390fd5b6002600055806104295760405162461bcd60e51b815260206004820152601e60248201527f5072696365206d757374206265206174206c65617374206f6e6520776569000060448201526064016103ce565b60045434146104865760405162461bcd60e51b8152602060048201526024808201527f5072696365206d75737420626520657175616c20746f206c697374696e6720706044820152637269636560e01b60648201526084016103ce565b610494600180546001019055565b600061049f60015490565b6040805160e0810182528281526001600160a01b0387811660208084018281528486018a8152336060870181815260006080890181815260a08a018e815260c08b018381528d8452600598899052928c90209a518b55955160018b018054918b166001600160a01b0319928316179055945160028b0155915160038a018054918a1691861691909117905590516004808a01805492909916919094161790965591519286019290925592516006909401805494151560ff199095169490941790935592516323b872dd60e01b81529182015230602482015260448101869052919250906323b872dd90606401600060405180830381600087803b1580156105a557600080fd5b505af11580156105b9573d6000803e3d6000fd5b505060408051338152600060208201819052818301879052606082015290518693506001600160a01b038816925084917fcd9b0dfebab7db4dbe70606f69fadc8e987e7c80a65410f0bb5ae8bd72dabba7919081900360800190a4505060016000555050565b600260005414156106425760405162461bcd60e51b81526004016103ce9061102b565b60026000818155828152600560208190526040909120908101549101543482146106ca5760405162461bcd60e51b815260206004820152603360248201527f506c65617365207375626d6974207468652061736b696e6720707269636520696044820152726e206f7264657220746f20636f6e74696e756560681b60648201526084016103ce565b6000838152600560205260408082206003015490516001600160a01b03909116913480156108fc02929091818181858888f19350505050158015610712573d6000803e3d6000fd5b506040516323b872dd60e01b8152306004820152336024820152604481018290526001600160a01b038516906323b872dd90606401600060405180830381600087803b15801561076157600080fd5b505af1158015610775573d6000803e3d6000fd5b50505060008481526005602052604090206004810180546001600160a01b03191633179055600601805460ff19166001179055506107b7600280546001019055565b6003546004546040516001600160a01b039092169181156108fc0291906000818181858888f193505050501580156107f3573d6000803e3d6000fd5b50506001600055505050565b6040516331a9108f60e11b8152600481018290526000906001600160a01b03841690636352211e9060240160206040518083038186803b15801561084257600080fd5b505afa158015610856573d6000803e3d6000fd5b505050506040513d601f19601f8201168201806040525081019061087a9190610edc565b9392505050565b6060600061088e60015490565b9050600061089b60025490565b6001546108a8919061107a565b90506000808267ffffffffffffffff8111156108d457634e487b7160e01b600052604160045260246000fd5b60405190808252806020026020018201604052801561090d57816020015b6108fa610ea0565b8152602001906001900390816108f25790505b50905060005b848110156103a257600060058161092b846001611062565b81526020810191909152604001600020600401546001600160a01b03161415610a0e57600061095b826001611062565b600081815260056020818152604092839020835160e0810185528154815260018201546001600160a01b0390811693820193909352600282015494810194909452600381015482166060850152600481015490911660808401529081015460a0830152600681015460ff16151560c08301528551929350918590879081106109f357634e487b7160e01b600052603260045260246000fd5b6020908102919091010152610a09600186611062565b945050505b80610a1881611091565b915050610913565b6000610a2b60015490565b905090565b60026000541415610a535760405162461bcd60e51b81526004016103ce9061102b565b60026000818155828152600560205260408082209092015491516331a9108f60e11b8152600481018390526001600160a01b03861690636352211e9060240160206040518083038186803b158015610aaa57600080fd5b505afa158015610abe573d6000803e3d6000fd5b505050506040513d601f19601f82011682018060405250810190610ae29190610edc565b9050336001600160a01b03821614610b485760405162461bcd60e51b8152602060048201526024808201527f4552433732313a204f6e6c7920746f6b656e206f776e65722063616e20747261604482015263373332b960e11b60648201526084016103ce565b60405163a22cb46560e01b8152336004820152600160248201526001600160a01b0386169063a22cb46590604401600060405180830381600087803b158015610b9057600080fd5b505af1158015610ba4573d6000803e3d6000fd5b50506040516323b872dd60e01b81523360048201526001600160a01b03878116602483015260448201869052881692506323b872dd9150606401600060405180830381600087803b158015610bf857600080fd5b505af1158015610c0c573d6000803e3d6000fd5b505050600084815260056020526040808220600490810180546001600160a01b0319166001600160a01b038a811691909117909155915163a22cb46560e01b8152339181019190915260248101929092528716915063a22cb46590604401600060405180830381600087803b158015610c8457600080fd5b505af1158015610c98573d6000803e3d6000fd5b5050600160005550505050505050565b60606000610cb560015490565b905060008060005b83811015610d18573360056000610cd5846001611062565b81526020810191909152604001600020600301546001600160a01b03161415610d0657610d03600184611062565b92505b80610d1081611091565b915050610cbd565b5060008267ffffffffffffffff811115610d4257634e487b7160e01b600052604160045260246000fd5b604051908082528060200260200182016040528015610d7b57816020015b610d68610ea0565b815260200190600190039081610d605790505b50905060005b848110156103a2573360056000610d99846001611062565b81526020810191909152604001600020600301546001600160a01b03161415610e8e576000600581610dcc846001611062565b81526020808201929092526040908101600090812054808252600580855291839020835160e0810185528154815260018201546001600160a01b0390811696820196909652600282015494810194909452600381015485166060850152600481015490941660808401529083015460a0830152600683015460ff16151560c08301528551909350859087908110610e7357634e487b7160e01b600052603260045260246000fd5b6020908102919091010152610e89600186611062565b945050505b80610e9881611091565b915050610d81565b6040805160e081018252600080825260208201819052918101829052606081018290526080810182905260a0810182905260c081019190915290565b600060208284031215610eed578081fd5b815161087a816110c2565b600080600060608486031215610f0c578182fd5b8335610f17816110c2565b92506020840135610f27816110c2565b929592945050506040919091013590565b60008060408385031215610f4a578182fd5b8235610f55816110c2565b946020939093013593505050565b600080600060608486031215610f77578283fd5b8335610f82816110c2565b95602085013595506040909401359392505050565b602080825282518282018190526000919060409081850190868401855b8281101561101e57815180518552868101516001600160a01b039081168887015286820151878701526060808301518216908701526080808301519091169086015260a0808201519086015260c09081015115159085015260e09093019290850190600101610fb4565b5091979650505050505050565b6020808252601f908201527f5265656e7472616e637947756172643a207265656e7472616e742063616c6c00604082015260600190565b60008219821115611075576110756110ac565b500190565b60008282101561108c5761108c6110ac565b500390565b60006000198214156110a5576110a56110ac565b5060010190565b634e487b7160e01b600052601160045260246000fd5b6001600160a01b03811681146110d757600080fd5b5056fea26469706673582212209ab0b732559260fbb64df54784222a25d814acf0bcea521379d93b61161cbc7b64736f6c63430008040033",
  "linkReferences": {},
  "deployedLinkReferences": {}
}